{
  "contractName": "show_num",
  "abi": [
    {
      "constant": false,
      "inputs": [
        {
          "internalType": "uint256",
          "name": "x",
          "type": "uint256"
        }
      ],
      "name": "set_num",
      "outputs": [],
      "payable": false,
      "stateMutability": "nonpayable",
      "type": "function"
    },
    {
      "constant": true,
      "inputs": [],
      "name": "reveal_num",
      "outputs": [
        {
          "internalType": "uint256",
          "name": "",
          "type": "uint256"
        }
      ],
      "payable": false,
      "stateMutability": "view",
      "type": "function"
    }
  ],
  "bytecode": "0x608060405234801561001057600080fd5b5060c68061001f6000396000f3fe6080604052348015600f57600080fd5b506004361060325760003560e01c80630da665a414603757806353cedc18146062575b600080fd5b606060048036036020811015604b57600080fd5b8101908080359060200190929190505050607e565b005b60686088565b6040518082815260200191505060405180910390f35b8060008190555050565b6000805490509056fea265627a7a72315820b8ddef3f79249c66849eebf44c4b09a0436fb9ef6b1ce45d0e3d58332fbd10fe64736f6c63430005100032",
  "source": "pragma solidity ^0.5.16;\r\n\r\ncontract show_num\r\n{\r\n\tuint num;\r\n\r\n\tfunction set_num(uint x) public\r\n\t{\r\n\t\tnum = x;\r\n\t}\r\n\r\n\tfunction reveal_num () public view returns (uint) \r\n\t{\r\n\t\treturn num;\r\n\t}\r\n}",
  "sourcePath": "C:/Users/richi/Solidity/ConsultancyDApp/ConsultancyDApp/contracts/show_num.sol",
  "compiler": {
    "name": "solc",
    "version": "0.5.16+commit.9c3226ce.Emscripten.clang"
  },
  "schemaVersion": "3.3.1",
  "updatedAt": "2021-02-14T16:08:46.035Z",
  "networkType": "ethereum",
  "devdoc": {
    "methods": {}
  },
  "userdoc": {
    "methods": {}
  }
}